:020000040000FA
:02000000A22834
:08000800F0000308F1000408F8
:10001000F200831203138C191620831203138B1022
:100020007108830072088400700809008C1113089D
:1000300083160313941A3128141D5C2883120313AA
:100040002030840027088407000894139300941B31
:100050002528B20A1416A70A073027020319A70198
:100060005C288312031332185B28B11B392809104E
:100070003A280914311A3E2809113F280915311B65
:10008000442807118814462807158810B1194B28F1
:10009000081187164D2808158712B11A5228081220
:1000A0000817542808160813311958288813592896
:1000B00088173108A000B201000008008312031362
:1000C000091409150715081508168817F830A00037
:1000D000B1008710881087120813080083120313D9
:1000E00009140911071508150812881387108810BC
:1000F00087120817C830A000B1000800831203134C
:10010000091009110711081108128813871488149F
:10011000871608170030A00008000830E200E1014F
:10012000E001E00F9128E10F9028E20B8F280800F2
:10013000E200E101E001E00F9B28E10F9A28E20BC9
:10014000992808008316031306149F14871088103B
:1001500087120813081208110910091107118813D2
:10016000881688158914071408148616061687152C
:100170000716831203137E200B170B168B178B1099
:1001800063000000153098200618C9288618CB286F
:10019000C028B301CD28FF30B3006E2083160313AF
:1001A0009F019F14FF30850094019101443093001A
:1001B0008C1583120313363094008C01AB01A70118
:1001C000B401A601B201861EEF2815309820861EC4
:1001D000EF28061AF7297E2005309820CD28083010
:1001E000AA00A9013308A8002818A90AA80CAA0B7C
:1001F000F42804302902031CFF28861CA22805309D
:10020000A900AA01213084002A08A8000310A80D23
:10021000A80DA80D280881389F000330E100E001F7
:10022000E00F1029E10B0F291F081F151F191629B0
:100230001E088000AA0A840AA90B04293108200696
:10024000A8002C308400A81F2C292B080002031DB5
:100250002C2987100914A017840A281E36292B0878
:100260000002031D3629871009152016840A281F4D
:1002700040292B080002031D40298810071520176C
:10028000840AA81D4A292B080002031D4A29871247
:100290000815A015840AA81E54292B080002031D66
:1002A000542908130816A0162C308400A01F5E29BC
:1002B00089185E290910A0132B088000840A201ECB
:1002C000672907186729091120122B088000840A62
:1002D000201F7129081871298814071120132B0871
:1002E0008000840AA01D7B2988197B2987160811A4
:1002F000A0112B088000840AA01E8529881A852950
:1003000008170812A0122B08800089309F000330C4
:10031000E100E001E00F8A29E10B89291F081F1580
:100320001F1990291E08A200A33022020318C92910
:1003300099302202031CC529091188140711871658
:1003400008110817081288132B082C02031DAE2968
:10035000091487100030B4008030A0008918B92932
:100360000130B400091087142B08AC000030A00045
:10037000BF29341CB629091487108030A0004130F1
:10038000A600AB0A0230982085297E208130A60085
:100390008529261CF329B11BCF290910D02909145E
:1003A000311AD4290911D5290915311BDA29071168
:1003B0008814DC2907158810B119E129081187165E
:1003C000E32908158712B11AE82908120817EA2943
:1003D000081608133119EE298813EF2988173108F8
:1003E000A0000030A600AB0A02309820E3287E204F
:0403F0000000F829E8
:02400E00323F3F
:00000001FF
