:100000000C942A000C9447000C9447000C94470071
:100010000C9447000C9447000C9447000C94470044
:100020000C9447000C9447000C9447000C94470034
:100030000C9447000C9447000C9447000C94470024
:100040000C9447000C9447000C9447000C94470014
:100050000C94470011241FBECFE5D4E0DEBFCDBF16
:1000600010E0A0E6B0E0ECEBF4E002C005900D92E9
:10007000AC36B107D9F710E0ACE6B0E001C01D9294
:10008000AE36B107E1F70E94D7010C945C020C94E4
:10009000000011B880E280B90895FA0120916D0046
:1000A00030E054EAB6EA44E8A7EA3F5F393C61F041
:1000B00056BF06B607FEFDCF21B1287F203149F09B
:1000C0002833B1F3283029F020936D002FEF3FEF54
:1000D00070C0B3B946BF06B607FEFDCF21B1287F79
:1000E000203219F3283321F32831D1F593B946BFD3
:1000F00006B607FEFDCF21B1287F2033C9F2283391
:10010000B9F2283269F583B946BF06B607FEFDCFBE
:1001100021B1287F2033F9F0283351F2283201F53C
:1001200056BF06B607FEFDCF21B1287F203129F04A
:10013000283309F4BDCF283099F4A3B946BF06B6D9
:1001400007FEFDCF21B1287F203469F0283419F053
:10015000283331F4ADCF20936D0020E030E027C08C
:1001600020936D0016C020936D0094EC20E030E0E9
:100170001BC06130710509F494E896BF06B607FE0E
:10018000FDCF81B1887F80936D00803539F088354F
:1001900019F02FEF3FEF0BC060E070E083B1819367
:1001A0002F5F3F4F615070401616170614F384E915
:1001B00086BFC9010895FA01680F791F9C012F6756
:1001C0006217730718F0B9016F5F7F4F592F2091A5
:1001D0006D0030E0B4EAA6EA44E83F5F393C61F0E4
:1001E000B6BF06B607FEFDCF21B1287F203149F00A
:1001F0002833B1F3283029F020936D002FEF3FEF23
:1002000052C0A3B946BF06B607FEFDCF21B1287F75
:10021000203219F3283321F3283101F553B946BFB1
:1002200006B607FEFDCF21B1287F203391F0283399
:10023000B9F2283299F483B946BF06B607FEFDCF5E
:1002400021B1287F203329F0283351F2283231F4AC
:1002500008C020936D0020E030E023C020936D00A3
:1002600014C020936D00681B790B20E030E044E857
:1002700012C0808183B946BF06B607FEFDCF81B1AB
:10028000887F80936D00883219F02FEF3FEF09C00F
:1002900031962F5F3F4FCB01821B930B1816190627
:1002A00044F384E986BFC9010895CF92DF92EF92AB
:1002B000FF920F931F93CF93DF936C018B017A0111
:1002C000C0E0D0E0C601B801A7010E94DB002FEF1B
:1002D0008F3F920761F0081B190BC80FD91F10162A
:1002E00011063CF4C80ED91EE80EF91EEBCFCFEF75
:1002F000DFEFCE01DF91CF911F910F91FF90EF9033
:10030000DF90CF90089580E090E00E945C021BB8DF
:100310001AB810BC599A8AB188618AB980B58668C2
:1003200080BD87E689B910BC0895AC0120E030E0BB
:1003300070E009C05D9BFECFFA01E20FF31F8081E0
:100340008CB92F5F3F4F26173707A0F30895AC01F4
:10035000809164009091650065E070E00E944D001E
:10036000282F8091640090916500A0916600B09163
:1003700067000596A11DB11D8093640090936500F0
:10038000A0936600B09367000596A11DB11D815032
:100390009040A140B04040F010926400109265007F
:1003A0001092660010926700822F90E00895CF921D
:1003B000DF92EF92FF921F93DF93CF93CDB7DEB71B
:1003C000C456D0400FB6F894DEBF0FBECDBF0E941A
:1003D00049001BB81AB810BC599A8AB188618AB909
:1003E00080B5866880BD87E689B910BCE0E6F0E09C
:1003F0005D9BFECF81918CB980E0E336F807C1F7B1
:1004000010E07E010894E11CF11C86E0C82ED12C7E
:10041000CC0EDD1EC7010E94A701F7015D9BFECF38
:1004200081918CB9EC15FD05C9F71F5F163091F766
:1004300080E090E0CC59DF4F0FB6F894DEBF0FBEDE
:10044000CDBFCF91DF911F91FF90EF90DF90CF90C4
:100450000895AC01809168009091690065E070E0BA
:100460000E945501282F8091680090916900A09109
:100470006A00B0916B000596A11DB11D80936800C4
:1004800090936900A0936A00B0936B000596A11D3C
:10049000B11D81509040A140B04040F010926800E2
:1004A0001092690010926A0010926B0081E08093B4
:0C04B0006C00822F90E00895F894FFCFBC
:0C04BC0048690D00AE080000AE0800000A
:00000001FF
