:100000000C942A000C9447000C9447000C94470071
:100010000C9447000C9447000C9447000C94470044
:100020000C9447000C9447000C9447000C94470034
:100030000C9447000C9447000C9447000C94470024
:100040000C9447000C9447000C9447000C94470014
:100050000C94470011241FBECFE5D8E0DEBFCDBF12
:1000600010E0A0E6B0E0E8E4FDE002C005900D92EB
:10007000A83BB107D9F711E0A8EBB0E001C01D9291
:10008000AD31B107E1F70E9422030C94A2060C9453
:10009000000087B3807F87BBBB9A80EC8DB9089541
:1000A00080EB87BBC49A83E58DB9089598B39163BB
:1000B00098BB98B321E030E002C0220F331F8A952D
:1000C000E2F72095292328BB0895AC0120E030E019
:1000D00009C0FA01E20FF31F80818FB9779BFECF31
:1000E0002F5F3F4F26173707A0F308958FB9779BEF
:1000F000FECF8FB10895382F20E048E054E8962FC6
:10010000917076956795832F8170891711F0642718
:1001100075272F5F283011F03695F1CFCB01089568
:10012000FC012FEF3FEF70E0A8E0B4E813C050816E
:1001300040E0922F917036952795852F8170891711
:1001400011F02A273B274F5F483011F05695F1CF29
:100150007F5F3196761758F320953095C901089541
:10016000AF92BF92CF92DF92EF92FF920F931F93C5
:10017000DF93CF93CDB7DEB72C970FB6F894DEBFE1
:100180000FBECDBF8C01D62EC72E8EE7D8018C9323
:10019000DE011396E0E6F0E086E001900D928150DA
:1001A000E1F79E012D5F3F4FB801A901F801C90198
:1001B000F22EE92E99E0A92EB12CAC0EBD1EDA016B
:1001C0008D91AD01880F81833196AA15BB05B9F7D2
:1001D00080E6F80187838F2D9E2DDC01E7E6F0E0B5
:1001E00086E001900D928150E1F7D901F8018D91DF
:1001F000880F80873196A417B507C9F788E6D8011C
:100200001E968C93DE011396EEE6F0E086E00190F8
:100210000D928150E1F7F90181919F01880FDB0177
:100220001F968C936F5F7F4FE417F507A1F781E668
:10023000F801858B83E0868B80EF878BD8015896F9
:100240002D2D3C2DC901FC0187E001900D928150BC
:10025000E1F7C80101966EE10E949000D8019096E6
:100260009C938E935F978EE791968C932C960FB606
:10027000F894DEBF0FBECDBFCF91DF911F910F91DC
:10028000FF90EF90DF90CF90BF90AF900895BA9815
:10029000B99AC19A0895B299FECF882311F4C198F2
:1002A00001C0C19AB29BFECF08959C01B299FECFC6
:1002B000C19AB29BFECFF90120E030E0862F90E09A
:1002C000019726C0508140E0A22FB0E0752F7078D2
:1002D000B299FECF772311F4C19801C0C19AB29BA5
:1002E000FECF222371F0A817B90759F0772341F008
:1002F0003F5F353031F4B299FECFC198B29BFECF4B
:1003000030E04F5F483011F0550FE0CF2F5F31964E
:100310002617C0F2C19A0895C498880F0E947600EB
:100320008FEF0E947600C49A08951F93162FC498E9
:10033000880F81600E947600812F0E947600C49A07
:100340001F910895BF92CF92DF92EF92FF920F9389
:100350001F93CF93DF93B82E8CE160E00E9495014C
:1003600004E010E028ECC22ED12C90EDE92E97E0AD
:10037000F92E8BE164EB0E949501C6010197F1F71C
:10038000CEE1D0E004C0C7010197F1F7219780E4E6
:100390000E948C0187FD08C02097A9F705C0C701FE
:1003A0000197F1F7219702C0CEE1D0E080E40E94EE
:1003B0008C0184FD02C0209791F780E40E948C019B
:1003C00084FD03C001501040A1F68CE16B2D0E940A
:1003D000950180E40E948C01282F30E084E036955E
:1003E00027958A95E1F721703070C901DF91CF918F
:1003F0001F910F91FF90EF90DF90CF90BF900895E5
:10040000FF920F931F93CF93DF93182FF62E8CE15B
:1004100060E00E94950187E1612F0E94950180E0D4
:1004200061EC0E949501CEE1D0E000ED17E004C040
:10043000C8010197F1F7219780E40E948C0184FDA7
:1004400002C02097A9F780E40E948C0184FF03C0BA
:10045000C1E0D0E008C08F2D0E94A201009711F0EA
:1004600081E090E0EC018CE16F2D0E94950181E02C
:100470000E948C01682F6F7E81E00E94950185E1CA
:1004800060E20E9495018C2FDF91CF911F910F9117
:10049000FF9008950F931F93182F80E06BED0E943B
:1004A000950187E1612F0E94950180E797E101970F
:1004B000F1F780E069ED0E9495018CE291E00197EF
:1004C000F1F780E061ED0E94950180E00E948C01CF
:1004D00080931C0100D000D000D0EDB7FEB731965C
:1004E00008EB10E0ADB7BEB712961C930E931197B0
:1004F00025E730E033832283848315820E94CA0378
:10050000F80101900020E9F73197E01BF10B8DB75E
:100510009EB706960FB6F8949EBF0FBE8DBFC8015A
:10052000BF010E9411031F910F910895CF93DF9394
:10053000C0E0D0E0FE01E058FF4F9E012F5F822F08
:1005400060810E9495012196C032D10599F7DF9113
:10055000CF91089580E06EE00E94950180E06FE108
:100560000E94950108950F931F9380E06FE10E9410
:10057000950180E00E948C0180931C0100D000D086
:1005800000D0EDB7FEB7319608EB10E0ADB7BEB7BF
:1005900012961C930E93119725E730E03383228344
:1005A000848315820E94CA03F80101900020E9F7B4
:1005B0003197E01BF10B8DB79EB706960FB6F894F6
:1005C0009EBF0FBE8DBFC801BF010E9411038CE109
:1005D00060E00E9495011F910F9108950E94B3025F
:1005E0000E94AA020E94960287E40E944A028FE0BB
:1005F0000E94A20187E40E944A0287E46FE00E9401
:10060000000290E008951BB81AB810BC599A8AB13C
:1006100088618AB980B5866880BD83E389B910BCDA
:100620000895AC0120E030E009C05D9BFECFFA01E7
:10063000E20FF31F80818CB92F5F3F4F26173707DA
:10064000A0F308958F929F92AF92BF92CF92DF92C4
:10065000EF92FF920F931F93DF93CF93CDB7DEB747
:10066000C85CD0400FB6F894DEBF0FBECDBF1BB83C
:100670001AB810BC599A8AB188618AB980B586685F
:1006800080BD83E389B910BCE0EAF0E05D9BFECF5A
:1006900081918CB980E0E33AF807C1F70E945000DD
:1006A0000E9447010E94EE0200D000D000D0EDB7BA
:1006B000FEB731968E010F5F1F4FADB7BEB71296D2
:1006C0001C930E93119725EA30E0338322838483B1
:1006D00015820E94CA03D8010D900020E9F71197F6
:1006E000A01BB10B20E030E0EDB7FEB736960FB699
:1006F000F894FEBF0FBEEDBFA80109C05D9BFECF01
:10070000FA01E20FF31F80818CB92F5F3F4F2A1748
:100710003B07A0F38E010B591F4FC80160EB70E03F
:100720000E94C303F80101900020E9F73197E01B14
:10073000C8018E0F911DFC018EE782933196FF2434
:10074000902EE12E8F016E010894C11CD11C91E402
:10075000892E88ECA82EB12CD801FC92C601692DF7
:100760007E2D0E94B000C60162E20E9455015D9B91
:10077000FECF8CB880E29EE4F5013197F1F7019746
:10078000D9F7F394E9CFFB01DC0101900D92002031
:10079000E1F70895AEE0B0E0E0EDF3E00C94790607
:1007A0000D891E8986E08C831A8309838FEF9FE76A
:1007B0009E838D839E01275E3F4FCE0101966F89F8
:1007C000788DA9010E94EE032F813885020F131F37
:1007D000F80110822E96E4E00C949506ABE0B0E0B0
:1007E000E4EFF3E00C946B063C012B015A01FC0191
:1007F00017821682838181FD03C06FEF7FEFC6C130
:100800009AE0892E1E010894211C311CF3012381DA
:10081000F20123FD859123FF81912F01882309F4A3
:10082000B2C1853239F423FD859123FF81912F01D7
:10083000853229F490E0B3010E94E105E7CF982FBB
:10084000FF24EE249924FFE1FF15D0F09B3269F0DC
:100850009C3228F4903259F0933291F40EC09D32BC
:1008600049F0903369F441E024C052E0F52A84E075
:10087000F82A28C098E0F92A25C0E0E1FE2A22C023
:10088000F7FC29C0892F80538A3070F4F6FE05C02A
:10089000989C902C1124980E15C0E89CE02C1124F3
:1008A000E80EF0E2FF2A0EC09E3229F4F6FC6BC17E
:1008B00040E4F42A07C09C3619F450E8F52A02C037
:1008C000983649F4F20123FD959123FF91912F0170
:1008D000992309F0B8CF892F8554833018F08052BE
:1008E000833038F444E050E0A40EB51E5FE3598332
:1008F0000FC0933631F0933779F0933509F056C035
:1009000020C0F5018081898342E050E0A40EB51E2D
:10091000610101E010E012C0F501C080D180F6FC59
:1009200003C06FEF7FEF02C0692D70E042E050E03E
:10093000A40EB51EC6010E94D6058C015FE7F52204
:1009400014C0F501C080D180F6FC03C06FEF7FEFCB
:1009500002C0692D70E042E050E0A40EB51EC60151
:100960000E94CB058C0150E8F52AF3FE07C01AC09F
:1009700080E290E0B3010E94E105EA948E2D90E0C0
:1009800008171907A8F30EC0F601F7FC8591F7FECA
:1009900081916F0190E0B3010E94E105E110EA94BA
:1009A000015010400115110579F7EAC0943611F095
:1009B000993669F5F7FE08C0F50120813181428141
:1009C000538184E090E00AC0F501808191819C010F
:1009D000442737FD4095542F82E090E0A80EB91EC1
:1009E0009FE6F92257FF09C0509540953095219513
:1009F0003F4F4F4F5F4FE0E8FE2ACA01B901A10106
:100A00002AE030E00E940D06D82ED21840C095375B
:100A100029F41F2D1F7E2AE030E01DC01F2D197FF5
:100A20009F3661F0903720F4983509F0ACC00FC0C4
:100A3000903739F0983709F0A6C004C028E030E0BC
:100A40000AC0106114FD146020E130E004C014FD00
:100A5000166020E132E017FF08C0F5016081718166
:100A60008281938144E050E008C0F501808191814A
:100A7000BC0180E090E042E050E0A40EB51EA10170
:100A80000E940D06D82ED2188FE7F82EF122F6FE1E
:100A90000BC05EEFF522D91438F4F4FE07C0F2FC67
:100AA00005C08FEEF82202C01D2D01C0192DF4FEE5
:100AB0000DC0FE01ED0DF11D8081803319F499EE1A
:100AC000F92208C01F5FF2FE05C003C08F2D867893
:100AD00009F01F5F0F2DF3FC14C0F0FE0FC01E15B0
:100AE00010F09D2C0BC09D2C9E0C911A1E2D06C043
:100AF00080E290E0B3010E94E1051F5F1E15C0F384
:100B000004C01E1510F4E11A01C0EE2404FF0FC04A
:100B100080E390E0B3010E94E10502FF1DC001FDEA
:100B200003C088E790E00EC088E590E00BC0802FFE
:100B3000867891F001FF02C08BE201C080E2F7FCF1
:100B40008DE290E0B3010E94E10506C080E390E0F1
:100B5000B3010E94E1059A94D914C0F3DA94F1012B
:100B6000ED0DF11D808190E0B3010E94E105DD20D3
:100B7000A9F706C080E290E0B3010E94E105EA9483
:100B8000EE20C1F743CEF30166817781CB012B962E
:100B9000E2E10C948706FC01059061507040011061
:100BA000D8F7809590958E0F9F1F0895FC01615096
:100BB000704001900110D8F7809590958E0F9F1F7F
:100BC00008950F931F93CF93DF938C01EB018B81DB
:100BD00081FF1BC082FF0DC02E813F818C819D81D2
:100BE0002817390764F4E881F9810193F983E883D0
:100BF00006C0E885F985802F0995892B31F48E810F
:100C00009F8101969F838E8302C00FEF1FEFC80163
:100C1000DF91CF911F910F910895FA01AA272830F3
:100C200051F1203181F1E8946F936E7F6E5F7F4FB9
:100C30008F4F9F4FAF4FB1E03ED0B4E03CD0670F35
:100C4000781F891F9A1FA11D680F791F8A1F911D88
:100C5000A11D6A0F711D811D911DA11D20D009F4D8
:100C600068943F912AE0269F11243019305D31931A
:100C7000DEF6CF010895462F4770405D4193B3E003
:100C80000FD0C9F7F6CF462F4F70405D4A3318F0AA
:100C9000495D31FD4052419302D0A9F7EACFB4E05B
:100CA000A6959795879577956795BA95C9F7009713
:100CB0006105710508959B01AC010A2E06945795B4
:100CC000479537952795BA95C9F7620F731F841F0B
:100CD000951FA01D08952F923F924F925F926F92A1
:100CE0007F928F929F92AF92BF92CF92DF92EF92BC
:100CF000FF920F931F93CF93DF93CDB7DEB7CA1B3D
:100D0000DB0B0FB6F894DEBF0FBECDBF09942A8867
:100D1000398848885F846E847D848C849B84AA840F
:100D2000B984C884DF80EE80FD800C811B81AA819C
:100D3000B981CE0FD11D0FB6F894DEBF0FBECDBF67
:080D4000ED010895F894FFCFC6
:100D480043512020202000565532444D5100524531
:100D58004C41592000526561643A2025780D0A00FB
:100D68000FFF8F39F00F3B39FAB93B44500BCC2FAA
:100D780061552F2D1078471422AE34F00000000082
:100D880048690D0A00256420446F6E65310D0A001C
:080D98004E756D6265720000EA
:00000001FF
