:100000000C942A000C9447000C9447000C94470071
:100010000C9447000C9447000C9447000C94470044
:100020000C9447000C9447000C9447000C94470034
:100030000C9447000C9447000C9447000C94470024
:100040000C9447000C9447000C9447000C94470014
:100050000C94470011241FBECFE5D8E0DEBFCDBF12
:1000600010E0A0E6B0E0E8EDF7E002C005900D92E8
:10007000A836B107D9F710E0A8E6B0E001C01D929C
:10008000A437B107E1F70E94AF000C94EA030C9487
:10009000000017BA80EB87BBC49A83E58DB9089539
:1000A000C49A98B321E030E002C0220F331F8A9532
:1000B000E2F72095292328BB0895282F392FF9012D
:1000C00080E090E005C021912FB9779BFECF01968B
:1000D00086179707C0F308958FB9779BFECF8FB12E
:1000E00008951BB81AB810BC599A8AB188618AB9A8
:1000F00080B5866880BD8FEC89B910BC0895282F23
:10010000392FF90103C05D9BFECF8CB98191882303
:10011000D1F70895BA9ABB9AC29A0895EF92FF92C6
:10012000CF93DF93C49880E00E946C00982F80E00A
:10013000EC01C070DF70D0936900C09368000E942A
:100140006C0090E08C2B9D2B90936900809368004D
:10015000C49AC298DF91CF91FF90EF900895CF920B
:10016000DF92EF92FF920F931F93DF93CF93CDB760
:10017000DEB7C456D0400FB6F894DEBF0FBECDBF79
:100180000E94710080E690E00E947F000E9449007A
:1001900088EE93E020E931E0F9013197F1F701971A
:1001A000D9F78E010F5F1F4F94E6E92E90E0F92EEC
:1001B00080E9C82E81E0D82E0E948A000E948E001D
:1001C00000D000D000D0EDB7FEB73196ADB7BEB7C6
:1001D00012961C930E931197F382E282809168002D
:1001E00090916900958384830E9409018DB79EB721
:1001F00006960FB6F8949EBF0FBE8DBFC8010E9431
:100200007F0080E197E2F6013197F1F70197D9F786
:10021000D3CFAEE0B0E0EFE0F1E00C94C1030D8984
:100220001E8986E08C831A8309838FEF9FE79E8364
:100230008D839E01275E3F4FCE0101966F89788D99
:10024000A9010E942C01EF81F885E00FF11F1082B7
:100250002E96E4E00C94DD03ACE0B0E0E2E3F1E0E4
:100260000C94B3036C011B018A01FC0117821682F6
:10027000838181FFD1C12E010894411C511CF601DC
:100280009381F10193FD859193FF81911F01882353
:1002900009F4BEC1853239F493FD859193FF8191B4
:1002A0001F01853229F490E0B6010E942903E7CFAF
:1002B000EE24FF2420E02032B0F48B3269F08C323F
:1002C00028F4803251F0833271F40BC08D3239F052
:1002D000803349F421602CC02260246029C028604A
:1002E00027C0206125C027FD2CC0382F30533A305D
:1002F00098F426FF08C08E2D880FE82EEE0CEE0C29
:10030000E80EE30E15C08F2D880FF82EFF0CFF0CA2
:10031000F80EF30E20620CC08E3221F426FD78C157
:10032000206406C08C3611F4206802C0883649F477
:10033000F10193FD859193FF81911F01882309F0BD
:10034000BACF982F9554933018F09052933028F4E8
:100350000C5F1F4FFFE3F9830DC0833631F0833705
:1003600071F0833509F060C022C0F8018081898373
:100370000E5F1F4F420171E0A72EB12C16C062E044
:10038000662E712C600E711EF8018080918026FF10
:1003900003C06E2D70E002C06FEF7FEFC4012C87A9
:1003A0000E941E035C0183012C852F7717C052E049
:1003B000652E712C600E711EF8018080918026FFE1
:1003C00003C06E2D70E002C06FEF7FEFC4012C8779
:1003D0000E9413035C012C852068830123FD20C04B
:1003E00008C080E290E0B6012C870E942903FA94AD
:1003F0002C858F2D90E0A816B90698F311C0F40152
:1004000027FD859127FF81914F0190E0B6012C8750
:100410000E9429032C85F110FA940894A108B108D0
:10042000A114B10461F7F1C0843611F0893649F5A1
:1004300027FF08C0F80160817181828193810C5F80
:100440001F4F09C0F80160817181882777FD809571
:10045000982F0E5F1F4F4FE6B42EB22297FF09C0B0
:1004600090958095709561957F4F8F4F9F4FF0E8E5
:10047000BF2AA2012AE030E00E945503782E7418AA
:1004800045C0853731F43FEEB32EB2222AE030E08A
:1004900025C099EFB92EB2228F36C1F0803720F4F3
:1004A000883509F0B5C00DC0803721F0883709F0D4
:1004B000AFC002C020E1B22AB4FE0BC084E0B82A6B
:1004C00008C0B4FE09C0E6E0BE2A06C028E030E05D
:1004D00005C020E130E002C020E132E0B7FE08C0F4
:1004E000F80160817181828193810C5F1F4F07C089
:1004F000F8016081718180E090E00E5F1F4FA201E2
:100500000E945503782E7418FFE7BF22B6FE0BC079
:100510002EEFB2227E1438F4B4FE07C0B2FC05C040
:100520008FEEB82202C0A72C01C0AE2C8B2D90E01C
:10053000B4FE0DC0FE01E70DF11D2081203319F43A
:10054000E9EEBE2209C0A394B2FE06C004C08678BC
:100550009070009709F0A3948B2C9924B3FC14C0DD
:10056000B0FE0FC0AF1428F4E72CEF0CEA18AF2C44
:1005700008C0E72C06C080E290E0B6010E94290383
:10058000A394AF14C0F304C0AF1410F4FA1801C060
:10059000FF2484FE0FC080E390E0B6010E9429038F
:1005A00082FE1FC081FE03C088E590E010C088E78E
:1005B00090E00DC0C40186789070009791F081FCA6
:1005C00002C080E201C08BE2B7FC8DE290E0B60190
:1005D0000E94290306C080E390E0B6010E9429032F
:1005E000EA947E14C0F37A94F201E70DF11D808144
:1005F00090E0B6010E9429037720A9F706C080E2A7
:1006000090E0B6010E942903FA94FF20C1F737CE8B
:10061000F6012681378102C02FEF3FEFC9012C96EA
:10062000E2E10C94CF03FC01059061507040011091
:10063000D8F7809590958E0F9F1F0895FC0161500B
:10064000704001900110D8F7809590958E0F9F1FF4
:1006500008950F931F93CF93DF938C01EB018B8150
:1006600081FF1BC082FF0DC02E813F818C819D8147
:100670002817390764F4E881F9810193F983E88345
:1006800006C0E885F985802F0995009731F48E81A1
:100690009F8101969F838E8302C00FEF1FEFC801D9
:1006A000DF91CF911F910F910895FA01AA27283069
:1006B00051F1203181F1E8946F936E7F6E5F7F4F2F
:1006C0008F4F9F4FAF4FB1E03ED0B4E03CD0670FAB
:1006D000781F891F9A1FA11D680F791F8A1F911DFE
:1006E000A11D6A0F711D811D911DA11D20D009F44E
:1006F00068943F912AE0269F11243019305D319390
:10070000DEF6CF010895462F4770405D4193B3E078
:100710000FD0C9F7F6CF462F4F70405D4A3318F01F
:10072000495D31FD4052419302D0A9F7EACFB4E0D0
:10073000A6959795879577956795BA95C9F7009788
:100740006105710508959B01AC010A2E0694579529
:10075000479537952795BA95C9F7620F731F841F80
:10076000951FA01D08952F923F924F925F926F9216
:100770007F928F929F92AF92BF92CF92DF92EF9231
:10078000FF920F931F93CF93DF93CDB7DEB7CA1BB2
:10079000DB0B0FB6F894DEBF0FBECDBF09942A88DD
:1007A000398848885F846E847D848C849B84AA8485
:1007B000B984C884DF80EE80FD800C811B81AA8112
:1007C000B981CE0FD11D0FB6F894DEBF0FBECDBFDD
:0807D000ED010895F894FFCF3C
:0807D80048690D0025640D00C5
:00000001FF
