:100000000C942A000C9447000C9447000C94470071
:100010000C9447000C9447000C9447000C94470044
:100020000C9447000C9447000C9447000C94470034
:100030000C9447000C9447000C9447000C94470024
:100040000C9447000C9447000C9447000C94470014
:100050000C94470011241FBECFE5D8E0DEBFCDBF12
:1000600011E0A0E6B0E0E8ECF3E102C005900D92EB
:10007000A434B107D9F712E0A4E4B1E001C01D92A5
:10008000A430B107E1F70E94C1050C94E2090C9479
:100090000000C4989FB1880F81608FB9779BFECF15
:1000A0008FB16FB9779BFECFC49A0895C4989FB162
:1000B00090E0880F991F8FB9779BFECF8FEF8FB994
:1000C000779BFECF8FB1C49A0895C4988FB181E019
:1000D0008FB9779BFECF8FB18EE08FB9779BFECF24
:1000E000C49AC4988FB181E08FB9779BFECF8FB14E
:1000F0008FE18FB9779BFECFC49A089521E030E05D
:10010000F901E95EFE4FE081C4988FB1C901880F03
:10011000991F81608FB9779BFECF8FB1EFB9779B25
:10012000FECFC49A2F5F3F4F2132310549F7089522
:10013000982FC4988FB181E08FB9779BFECF8FB194
:100140008BED8FB9779BFECFC49AC4988FB18FE2A5
:100150008FB9779BFECF8FB19FB9779BFECFC49AA3
:1001600080E797E10197F1F7C4988FB181E08FB9EB
:10017000779BFECF8FB189ED8FB9779BFECFC49A65
:10018000C4988FB181E08FB9779BFECF8FB181ED9D
:100190008FB9779BFECFC49A0895982FC4988FB1DA
:1001A00081E08FB9779BFECF8FB18BE18FB9779BC1
:1001B000FECFC49AC4988FB18FE28FB9779BFECFE0
:1001C0008FB19FB9779BFECFC49A80E797E10197E3
:1001D000F1F7C4988FB181E08FB9779BFECF8FB1D3
:1001E00089E18FB9779BFECFC49AC4988FB181E023
:1001F0008FB9779BFECF8FB181E18FB9779BFECF0F
:10020000C49A0895DF93CF9300D000D0CDB7DEB766
:10021000E82FC4988FB189E38FB9779BFECF8FB158
:100220001FB8779BFECFC49A84E090E09C838B83B9
:10023000A7E3F4EB6EE170E030E82FEF40ED57E01C
:1002400053C0C4988FB1AFB9779BFECF8FB1FFB9C0
:10025000779BFECFC49A7A83698308C0CA0101974D
:10026000F1F789819A8101979A838983C4988FB124
:100270003FB9779BFECF2FB9779BFECF8FB1C49A42
:1002800087FD05C089819A81181619063CF37A8387
:10029000698308C0CA010197F1F789819A810197A2
:1002A0009A838983C4988FB13FB9779BFECF2FB9CA
:1002B000779BFECF8FB1C49A84FD05C089819A8156
:1002C000181619063CF3C4988FB13FB9779BFECF3F
:1002D0002FB9779BFECF8FB1C49A84FD0BC08B8161
:1002E0009C8101979C838B838B819C8118161906B6
:1002F0000CF4A7CFC4988FB189E38FB9779BFECF59
:100300008FB1EFB9779BFECFC49AC4988FB180E8C4
:100310008FB9779BFECF8FEF8FB9779BFECF2FB131
:10032000C49A30E054E0369527955A95E1F721704C
:100330003070C9010F900F900F900F90CF91DF9107
:1003400008951F93DF93CF9300D0CDB7DEB7982FDA
:10035000162FC4988FB189E38FB9779BFECF8FB1E9
:100360001FB8779BFECFC49AC4988FB18FE28FB924
:10037000779BFECF8FB19FB9779BFECFC49AC4986D
:100380008FB181E08FB9779BFECF8FB181EC8FB9B0
:10039000779BFECFC49A8EE190E09A83898350E8E0
:1003A0004FEF20ED37E008C0C9010197F1F78981CF
:1003B0009A8101979A838983C4988FB15FB9779B9B
:1003C000FECF4FB9779BFECF8FB1C49A84FD05C095
:1003D00089819A81181619063CF3C4988FB180E878
:1003E0008FB9779BFECF8FEF8FB9779BFECF8FB101
:1003F000C49A84FD05C0812F0E940201892B21F03F
:10040000D99A21E030E003C0D99820E030E0C498C8
:100410008FB189E38FB9779BFECF8FB11FB9779BDF
:10042000FECFC49AC4988FB182E08FB9779BFECF7C
:100430008FEF8FB9779BFECF9FB1C49AC4988FB1CD
:1004400083E08FB9779BFECF8FB19F7E9FB9779B5B
:10045000FECFC49AC4988FB18BE28FB9779BFECF41
:100460008FB180E28FB9779BFECFC49A822F0F9015
:100470000F90CF91DF911F910895DF93CF9300D01C
:10048000CDB7DEB7C4988FB182E08FB9779BFECF2E
:100490008FEF8FB9779BFECF9FB1C49AC4988FB16D
:1004A00083E08FB9779BFECF8FB190619FB9779B27
:1004B000FECFC49AC4988FB181E08FB9779BFECFED
:1004C0008FB181E18FB9779BFECFC49AC4988FB169
:1004D0008FE28FB9779BFECF8FB187E48FB9779B7F
:1004E000FECFC49A8EE190E09A83898350E84FEF63
:1004F00020ED37E008C0C9010197F1F789819A81A1
:1005000001979A838983C4988FB15FB9779BFECF97
:100510004FB9779BFECF8FB1C49A84FD05C0898106
:100520009A81181619063CF3C4988FB180E88FB9E8
:10053000779BFECF8FEF8FB9779BFECF8FB1C49A99
:1005400084FD05C0862F0E940201892B19F0D99ADB
:1005500091E002C0D99890E0C4988FB181E08FB942
:10056000779BFECF8FB181E08FB9779BFECFC49A86
:10057000C4988FB18BE28FB9779BFECF8FB180E4A7
:100580008FB9779BFECFC49A892F0F900F90CF9190
:10059000DF91089580915B0190915C0141E050E012
:1005A00060E070E01CC0FA01E554FE4FE081DA9A89
:1005B00021E030E0B29BFECFB299FECFE7FF02C050
:1005C000C19A01C0C1982F5F3F4F2930310511F00A
:1005D000EE0FF0CF685F7F4FDA984F5F5F4F841761
:1005E00095070CF721E030E0B29BFECFB299FECF29
:1005F000C19A2F5F3F4F23303105B1F7CB010895EA
:10060000CF93DF93EC01A091FE01B091FF014091E7
:1006100053015091540180E061E070E017C021E087
:1006200030E0B299FECFB29BFECF880FB1998160C6
:100630002F5F3F4F29303105A1F7FD01E25AFE4FF0
:1006400080836F5F7F4F1196485F5F4FC617D70754
:1006500034F74093530150935401B093FF01A0939A
:10066000FE01DF91CF9108951092FD011092FC01DF
:10067000C4988FB184E88FB9779BFECF8FEF8FB985
:10068000779BFECF8FB1C49A80935E01C4988FB1DF
:1006900080E88FB9779BFECF8FEF8FB9779BFECF26
:1006A0008FB1C49A80935F0181E040E050E0B2993D
:1006B000FECFB29BFECFB19B05C0882351F44E5FA5
:1006C0005F4F0DC0B299FECFB29BFECFB19904C06F
:1006D00080E040E050E003C04E5F5F4F81E0483370
:1006E000510529F788E3809353011092540120E0CB
:1006F00081E090E0B299FECFB29BFECF220FB1997C
:100700002160019689309105A9F707C0B299FECF03
:10071000B29BFECF220FB19921602E37B9F74093DB
:1007200060012093610184E090E09093FF01809349
:10073000FE0181E090E00E9400032091FE013091D3
:10074000FF01F901E35AFE4F808180935701109217
:100750005801809161018E37E1F020E030E024C043
:1007600081E090E00E9400038091FE019091FF01E2
:10077000FC013197F093FF01E093FE01E25AFE4F36
:10078000208120935701109258019093FF0180938C
:10079000FE0180915701909158018E37910501F724
:1007A0002091530130915401C9010895C4988FB12B
:1007B00080E28FB9779BFECF8FEF8FB9779BFECF0B
:1007C000EFB1C49AEF7740915E01C4988FB186E291
:1007D0008FB9779BFECF8FEF8FB9779BFECF8FB10D
:1007E000C49A90E08F7190702AEF3FEFBC01629F36
:1007F000C001639F900D729F900D112423E0429FD2
:1008000090011124820F931F62E070E00E94DC06C9
:100810009B01AB01C4988FB18EE28FB9779BFECF5D
:100820008FEF8FB9779BFECF8FB1C49A87FF1EC021
:10083000E532C1F0E63238F4E13069F1E13078F1C7
:10084000E232C1F528C0EF3269F0E03318F4EB3240
:1008500089F504C0EF3311F0E83561F5A9014F5572
:10086000504028C0A9014056504024C0E53299F0BC
:10087000E63238F4E130B9F0E130C8F0E232D1F4D8
:100880000EC0EF3281F0E83371F0EB3299F4A90138
:10089000445650400FC0A901435650400BC0A90117
:1008A0004556504007C0A9014656504003C0A90113
:1008B00047565040CA010895BE98BD9ABF9ABC9A47
:1008C00080E58DB9BA9808951BB888E18AB986E8A1
:1008D00080BD10BC89E189B90895FC0104C08CB9C0
:1008E0005D9BFECF319680818823C9F70895382F0C
:1008F00020E04091590150915A0160E0E1E2F0E1BD
:10090000CA0182279327440F551F97FF02C04E2725
:100910005F276F5F683019F0220F331FF1CF5093BC
:100920005A014093590108951F93CF93DF938FEF9E
:100930009FEF90935A0180935901C0E0D0E020C00E
:10094000FE01E25CFE4F8081182F82958F70282F68
:1009500030E08A3018F4C901C09602C0C901C796B8
:100960000E947704812F8F70282F30E08A3018F48E
:10097000C901C09602C0C901C7960E94770421969A
:100980008091420190E0C817D907D0F280915901B7
:1009900090915A0180935D0190935201DF91CF9124
:1009A0001F9108950E94940480E090E00895282FFC
:1009B00030E08A3018F4205D3F4F02C0295C3F4F81
:1009C000C90108950F931F93CF93DF9320E030E088
:1009D00080E090E045E505C0FC01E454FE4F408313
:1009E00001962F5F3F4F8A309105B4F38EE78093D5
:1009F000C601E9018AE090E090934B0180934A019F
:100A000080913D01A82FB0E0B0934D01A0934C011F
:100A100048E351E020E030E00AC0FA018191AF01E3
:100A2000F901E953FE4F808321962F5F3F4F2A172C
:100A30003B079CF380914201682F70E070934F0157
:100A400060934E010EE311E0AD01455F5F4F20E082
:100A500030E00CC0F80181918F01FA01E454FE4F9F
:100A6000808321962F5F3F4F4F5F5F4F26173707D9
:100A70008CF33093490120934801FD01E60FF71FE5
:100A80003A96F0935101E09350013A9780915201C8
:100A9000DF01A953BE4F8C9380915D01DF01A85304
:100AA000BE4F8C93DF01A753BE4F8EE78C93E65366
:100AB000FE4F80832496D0935C01C0935B01DF914D
:100AC000CF911F910F9108950F931F93DF93CF93B1
:100AD000CDB7DEB7C456D0400FB6F894DEBF0FBE18
:100AE000CDBFC4988FB181E08FB9779BFECF8FB116
:100AF0008FE18FB9779BFECFC49AC4988FB11FB88E
:100B0000779BFECF8FEF8FB9779BFECF2FB1C49A23
:100B100000D000D000D0EDB7FEB731968E010F5F48
:100B20001F4FADB7BEB712961C930E93119780E678
:100B300090E093838283248315820E940A078DB7F5
:100B40009EB706960FB6F8949EBF0FBE8DBFC80124
:100B50000E946D04C4988FB189E38FB9779BFECF53
:100B60008FB11FB8779BFECFC49ACC59DF4F0FB619
:100B7000F894DEBF0FBECDBFCF91DF911F910F91D3
:100B800008956F927F928F929F92AF92BF92CF9271
:100B9000DF92EF92FF920F931F93DF93CF93CDB726
:100BA000DEB76E970FB6F894DEBF0FBECDBF8FEFE6
:100BB0008ABBBE98BD9ABF9ABC9A80E58DB9BA9897
:100BC0001BB888E18AB986E880BD10BC89E189B983
:100BD000C49A8E010F5F1F4FC8016AE770E00E9440
:100BE0000307F80104C08CB95D9BFECF319680816C
:100BF0008823C9F70E9464050E9465000E947E0058
:100C000087E40E9498008FE00E940201892B79F40A
:100C1000CE01019667E970E00E940307F80104C065
:100C20008CB95D9BFECF319680818823C9F787E41C
:100C30000E94CD008FE00E940201892B79F4CE0141
:100C400001966FEA70E00E940307F80104C08CB9B6
:100C50005D9BFECF319680818823C9F7C4988FB100
:100C600080E88FB9779BFECF8FEF8FB9779BFECF50
:100C70002FB1C49A00D000D000D0EDB7FEB73196A6
:100C8000CE010196ADB7BEB712969C938E93119785
:100C900087EC90E093838283248315820E940A0765
:100CA000F8018DB79EB706960FB6F8949EBF0FBE9B
:100CB0008DBF04C08CB95D9BFECF319680818823A7
:100CC000C9F7B99A7E010894E11CF11C20ED822E2F
:100CD00027E0922E662463949FE1792E8EEFA82E52
:100CE00080E0B82EC12CBAEFDB2E0E9494040E9443
:100CF000E20487E40E94980087E46FE00E94A1016B
:100D0000882371F4C70166ED70E00E940307F801C3
:100D100004C08CB95D9BFECF319680818823C9F7D2
:100D2000C70168EE70E00E940307F80104C08CB9A7
:100D30005D9BFECF319680818823C9F7D89A0E94A7
:100D4000CA02F4013197F1F7C4982FB16FB8779BBD
:100D5000FECF2FB17FB8779BFECFC49AD89800D032
:100D600000D000D0EDB7FEB73196ADB7BEB7129642
:100D7000FC92EE921197B382A282958384830E94A3
:100D80000A07F8018DB79EB706960FB6F8949EBF76
:100D90000FBE8DBF04C08CB95D9BFECF31968081A4
:100DA0008823C9F781E090E0F6013197F1F70196C9
:100DB00089379105C9F799CF97FB092E07260AD0E5
:100DC00077FD04D00CD006D000201AF47095619500
:100DD0007F4F0895F6F7909581959F4F0895AA1B30
:100DE000BB1B51E107C0AA1FBB1FA617B70710F016
:100DF000A61BB70B881F991F5A95A9F78095909548
:100E0000BC01CD010895FB01DC0101900D92002091
:100E1000E1F70895AEE0B0E0E0E1F7E00C94B90945
:100E20000D891E8986E08C831A8309838FEF9FE7E3
:100E30009E838D839E01275E3F4FCE0101966F8971
:100E4000788DA9010E942E072F813885020F131F6C
:100E5000F80110822E96E4E00C94D509ABE0B0E0E6
:100E6000E4E3F7E00C94AB093C012B015A01FC01CF
:100E700017821682838181FD03C06FEF7FEFC6C1A9
:100E80009AE0892E1E010894211C311CF301238154
:100E9000F20123FD859123FF81912F01882309F41D
:100EA000B2C1853239F423FD859123FF81912F0151
:100EB000853229F490E0B3010E942109E7CF982FF1
:100EC000FF24EE249924FFE1FF15D0F09B3269F056
:100ED0009C3228F4903259F0933291F40EC09D3236
:100EE00049F0903369F441E024C052E0F52A84E0EF
:100EF000F82A28C098E0F92A25C0E0E1FE2A22C09D
:100F0000F7FC29C0892F80538A3070F4F6FE05C0A3
:100F1000989C902C1124980E15C0E89CE02C11246C
:100F2000E80EF0E2FF2A0EC09E3229F4F6FC6BC1F7
:100F300040E4F42A07C09C3619F450E8F52A02C0B0
:100F4000983649F4F20123FD959123FF91912F01E9
:100F5000992309F0B8CF892F8554833018F0805237
:100F6000833038F444E050E0A40EB51E5FE35983AB
:100F70000FC0933631F0933779F0933509F056C0AE
:100F800020C0F5018081898342E050E0A40EB51EA7
:100F9000610101E010E012C0F501C080D180F6FCD3
:100FA00003C06FEF7FEF02C0692D70E042E050E0B8
:100FB000A40EB51EC6010E9416098C015FE7F5223A
:100FC00014C0F501C080D180F6FC03C06FEF7FEF45
:100FD00002C0692D70E042E050E0A40EB51EC601CB
:100FE0000E940B098C0150E8F52AF3FE07C01AC0D5
:100FF00080E290E0B3010E942109EA948E2D90E0F6
:1010000008171907A8F30EC0F601F7FC8591F7FE43
:1010100081916F0190E0B3010E942109E110EA94EF
:10102000015010400115110579F7EAC0943611F00E
:10103000993669F5F7FE08C0F501208131814281BA
:10104000538184E090E00AC0F501808191819C0188
:10105000442737FD4095542F82E090E0A80EB91E3A
:101060009FE6F92257FF09C050954095309521958C
:101070003F4F4F4F5F4FE0E8FE2ACA01B901A1017F
:101080002AE030E00E944D09D82ED21840C0953792
:1010900029F41F2D1F7E2AE030E01DC01F2D197F6F
:1010A0009F3661F0903720F4983509F0ACC00FC03E
:1010B000903739F0983709F0A6C004C028E030E036
:1010C0000AC0106114FD146020E130E004C014FD7A
:1010D000166020E132E017FF08C0F50160817181E0
:1010E0008281938144E050E008C0F50180819181C4
:1010F000BC0180E090E042E050E0A40EB51EA101EA
:101100000E944D09D82ED2188FE7F82EF122F6FE54
:101110000BC05EEFF522D91438F4F4FE07C0F2FCE0
:1011200005C08FEEF82202C01D2D01C0192DF4FE5E
:101130000DC0FE01ED0DF11D8081803319F499EE93
:10114000F92208C01F5FF2FE05C003C08F2D86780C
:1011500009F01F5F0F2DF3FC14C0F0FE0FC01E1529
:1011600010F09D2C0BC09D2C9E0C911A1E2D06C0BC
:1011700080E290E0B3010E9421091F5F1E15C0F3B9
:1011800004C01E1510F4E11A01C0EE2404FF0FC0C4
:1011900080E390E0B3010E94210902FF1DC001FD20
:1011A00003C088E790E00EC088E590E00BC0802F78
:1011B000867891F001FF02C08BE201C080E2F7FC6B
:1011C0008DE290E0B3010E94210906C080E390E027
:1011D000B3010E9421099A94D914C0F3DA94F10161
:1011E000ED0DF11D808190E0B3010E942109DD2009
:1011F000A9F706C080E290E0B3010E942109EA94B9
:10120000EE20C1F743CEF30166817781CB012B96A7
:10121000E2E10C94C709FC01059061507040011097
:10122000D8F7809590958E0F9F1F0895FC0161500F
:10123000704001900110D8F7809590958E0F9F1FF8
:1012400008950F931F93CF93DF938C01EB018B8154
:1012500081FF1BC082FF0DC02E813F818C819D814B
:101260002817390764F4E881F9810193F983E88349
:1012700006C0E885F985802F0995892B31F48E8188
:101280009F8101969F838E8302C00FEF1FEFC801DD
:10129000DF91CF911F910F910895FA01AA2728306D
:1012A00051F1203181F1E8946F936E7F6E5F7F4F33
:1012B0008F4F9F4FAF4FB1E03ED0B4E03CD0670FAF
:1012C000781F891F9A1FA11D680F791F8A1F911D02
:1012D000A11D6A0F711D811D911DA11D20D009F452
:1012E00068943F912AE0269F11243019305D319394
:1012F000DEF6CF010895462F4770405D4193B3E07D
:101300000FD0C9F7F6CF462F4F70405D4A3318F023
:10131000495D31FD4052419302D0A9F7EACFB4E0D4
:10132000A6959795879577956795BA95C9F700978C
:101330006105710508959B01AC010A2E069457952D
:10134000479537952795BA95C9F7620F731F841F84
:10135000951FA01D08952F923F924F925F926F921A
:101360007F928F929F92AF92BF92CF92DF92EF9235
:10137000FF920F931F93CF93DF93CDB7DEB7CA1BB6
:10138000DB0B0FB6F894DEBF0FBECDBF09942A88E1
:10139000398848885F846E847D848C849B84AA8489
:1013A000B984C884DF80EE80FD800C811B81AA8116
:1013B000B981CE0FD11D0FB6F894DEBF0FBECDBFE1
:0813C000ED010895F894FFCF40
:1013C80057616B6520757020636F6D706C6574650F
:1013D800203A20256420610D0A000A0D57697265BC
:1013E8006C65737320436F6D6D207573696E67202C
:1013F800434331303230000A0D54582043616C6940
:1014080062726174696F6E206661696C6564000A56
:101418000D52582043616C6962726174696F6E2065
:101428006661696C6564000A0D2053544154555334
:10143800203D202578000A0D504C4C204C4F434B42
:10144800206661696C6564000A0D5472616E736D83
:10145800697474696E67202E2E2E2E2E0A000A0DCE
:101468005472616E7320636F6D706C6574653B6355
:101478006F756E743D2564000FFF8F39F00F3B398F
:10148800FAB93B44500BCC2F61552F2D10784714D7
:1014980022AE34F000000000010203040505ABCDC4
:0414A800EF780400D5
:00000001FF
