:1000000012C02CC02BC02AC029C028C027C026C0BF
:1000100025C024C023C022C021C020C01FC01EC0D4
:100020001DC01CC01BC011241FBECFE5D4E0DEBF25
:10003000CDBF10E0A0E6B0E0EEE8FCE002C0059025
:100040000D92A83BB107D9F711E0A8EBB0E001C0D1
:100050001D92AD31B107E1F7B0D217C6D1CF87B34A
:10006000807F87BBBB9A80EC8DB9089580EB87BBFE
:10007000C49A83E58DB9089598B3916398BB98B3FA
:1000800021E030E002C0220F331F8A95E2F720956D
:10009000292328BB0895AC0120E030E009C0FA0113
:1000A000E20FF31F80818FB9779BFECF2F5F3F4F09
:1000B00026173707A0F308958FB9779BFECF8FB12E
:1000C0000895382F20E048E054E8962F91707695F7
:1000D0006795832F8170891711F0642775272F5F2B
:1000E000283011F03695F1CFCB010895FC012FEFA8
:1000F0003FEF70E0A8E0B4E813C0508140E0922FD9
:10010000917036952795852F8170891711F02A27D0
:100110003B274F5F483011F05695F1CF7F5F319606
:10012000761758F320953095C9010895AF92BF9284
:10013000CF92DF92EF92FF920F931F93DF93CF93B3
:10014000CDB7DEB72C970FB6F894DEBF0FBECDBF8C
:100150008C01D62EC72E8EE7D8018C93DE01139624
:10016000E0E6F0E086E001900D928150E1F79E011B
:100170002D5F3F4FB801A901F801C901F22EE92E08
:1001800099E0A92EB12CAC0EBD1EDA018D91AD0106
:10019000880F81833196AA15BB05B9F780E6F8016F
:1001A00087838F2D9E2DDC01E7E6F0E086E001904D
:1001B0000D928150E1F7D901F8018D91880F808768
:1001C0003196A417B507C9F788E6D8011E968C9317
:1001D000DE011396EEE6F0E086E001900D9281508C
:1001E000E1F7F90181919F01880FDB011F968C9344
:1001F0006F5F7F4FE417F507A1F781E6F801858B64
:1002000083E0868B80EF878BD80158962D2D3C2D6F
:10021000C901FC0187E001900D928150E1F7C8010E
:1002200001966EE163DFD80190969C938E935F9761
:100230008EE791968C932C960FB6F894DEBF0FBE86
:10024000CDBFCF91DF911F910F91FF90EF90DF9085
:10025000CF90BF90AF900895BA98B99AC19A089577
:10026000B299FECF882311F4C19801C0C19AB29B04
:10027000FECF08959C01B299FECFC19AB29BFECFEA
:10028000F90120E030E0862F90E0019726C05081F0
:1002900040E0A22FB0E0752F7078B299FECF77239F
:1002A00011F4C19801C0C19AB29BFECF222371F014
:1002B000A817B90759F0772341F03F5F353031F483
:1002C000B299FECFC198B29BFECF30E04F5F48306D
:1002D00011F0550FE0CF2F5F31962617C0F2C19A6B
:1002E0000895C498880FE8DE8FEFE6DEC49A08957B
:1002F0001F93162FC498880F8160DEDE812FDCDE0D
:10030000C49A1F910895BF92CF92DF92EF92FF920D
:100310000F931F93CF93DF93B82E8CE160E0E8DF5B
:1003200004E010E020E9C22E21E0D22E90EAE92E6E
:100330009FE0F92E8BE164EBDBDFC6010197F1F75B
:10034000CEE1D0E004C0C7010197F1F7219780E426
:10035000C8DF87FD08C02097B1F705C0C701019726
:10036000F1F7219702C0CEE1D0E080E4BADF84FD4E
:1003700002C0209799F780E4B4DF84FD03C00150E8
:100380001040C1F68CE16B2DB3DF80E4AADF282F8B
:1003900030E084E0369527958A95E1F7217030703A
:1003A000C901DF91CF911F910F91FF90EF90DF90E6
:1003B000CF90BF900895FF920F931F93CF93DF9339
:1003C000182FF62E8CE160E093DF87E1612F90DF3C
:1003D00080E061EC8DDFCEE1D0E000EA1FE004C0F8
:1003E000C8010197F1F7219780E47BDF84FD02C00B
:1003F0002097B1F780E475DF84FF03C0C1E0D0E04F
:1004000007C08F2D80DF009711F081E090E0EC01B4
:100410008CE16F2D6DDF81E064DF682F6F7E81E0FE
:1004200067DF85E160E264DF8C2FDF91CF911F9160
:100430000F91FF9008950F931F93182F80E06BED9D
:1004400057DF87E1612F54DF80EE9EE20197F1F7DD
:1004500080E069ED4DDF88E592E00197F1F780E0FB
:1004600061ED46DF80E03DDF80931C0100D000D0CD
:1004700000D0EDB7FEB7319608EB10E0ADB7BEB7D0
:1004800012961C930E93119725E730E03383228355
:100490008483158234D1F80101900020E9F7319767
:1004A000E01BF10B8DB79EB706960FB6F8949EBF72
:1004B0000FBE8DBFC801BF016FD01F910F9108956E
:1004C000CF93DF93C0E0D0E0FE01E058FF4F9E01E4
:1004D0002F5F822F60810CDF2196C032D105A1F7FA
:1004E000DF91CF91089580E06EE002DF80E06FE160
:1004F000FFDE08950F931F9380E06FE1F9DE80E047
:10050000F0DE80931C0100D000D000D0EDB7FEB724
:10051000319608EB10E0ADB7BEB712961C930E9360
:10052000119725E730E03383228384831582E7D057
:10053000F80101900020E9F73197E01BF10B8DB72E
:100540009EB706960FB6F8949EBF0FBE8DBFC8012A
:10055000BF0122D08CE160E0CBDE1F910F910895A6
:10056000C9DFC1DFADDF87E466DF8FE0CCDE87E483
:1005700062DF87E46FE01FDF90E008951BB81AB8D0
:1005800010BC599A8AB188618AB980B5866880BDE5
:1005900087E689B910BC0895AC0120E030E009C0BD
:1005A0005D9BFECFFA01E20FF31F80818CB92F5FB4
:1005B0003F4F26173707A0F308958F929F92AF926F
:1005C000BF92CF92DF92EF92FF920F931F93DF9330
:1005D000CF93CDB7DEB7C85CD0400FB6F894DEBF7E
:1005E0000FBECDBF1BB81AB810BC599A8AB188612A
:1005F0008AB980B5866880BD87E689B910BCE0EA13
:10060000F0E05D9BFECF81918CB980E0E33AF80782
:10061000C1F72CDD21DEA4DF00D000D000D0EDB783
:10062000FEB731968E010F5F1F4FADB7BEB7129662
:100630001C930E93119725EA30E033832283848341
:1006400015825DD0D8010D900020E9F71197A01B0D
:10065000B10B20E030E0EDB7FEB736960FB6F89458
:10066000FEBF0FBEEDBFA80109C05D9BFECFFA0122
:10067000E20FF31F80818CB92F5F3F4F2A173B0792
:10068000A0F38E010B591F4FC80160EB70E030D012
:10069000F80101900020E9F73197E01BC8018E0FA7
:1006A000911DFC018EE782933196FF24902EE12E5E
:1006B0008F016E010894C11CD11C91E4892E80E940
:1006C000A82E81E0B82ED801FC92C601692D7E2D9E
:1006D0002DDDC60162E2CEDD5D9BFECF8CB880E2EF
:1006E0009EE4F5013197F1F70197D9F7F394EBCF39
:1006F000FB01DC0101900D920020E1F70895AEE0CE
:10070000B0E0E4E8F3E098C20D891E8986E08C83AE
:100710001A8309838FEF9FE79E838D839E01275E57
:100720003F4FCE0101966F89788DA90109D02F81A5
:100730003885020F131FF80110822E96E4E098C24C
:10074000ABE0B0E0E5EAF3E069C23C012B015A01FD
:10075000FC0117821682838181FD03C06FEF7FEF5A
:10076000B9C19AE0892E1E010894211C311CF301A5
:100770002381F20123FD859123FF81912F0188239D
:1007800009F4A5C1853239F423FD859123FF8191B8
:100790002F01853221F490E0B301B6D1E8CF982F34
:1007A000FF24EE249924FFE1FF15D0F09B3269F07D
:1007B0009C3228F4903259F0933291F40EC09D325D
:1007C00049F0903369F441E024C052E0F52A84E016
:1007D000F82A28C098E0F92A25C0E0E1FE2A22C0C4
:1007E000F7FC29C0892F80538A3070F4F6FE05C0CB
:1007F000989C902C1124980E15C0E89CE02C112494
:10080000E80EF0E2FF2A0EC09E3229F4F6FC5FC12A
:1008100040E4F42A07C09C3619F450E8F52A02C0D7
:10082000983649F4F20123FD959123FF91912F0110
:10083000992309F0B8CF892F8554833018F080525E
:10084000833038F444E050E0A40EB51E5FE35983D2
:100850000FC0933631F0933779F0933509F052C0D9
:100860001FC0F5018081898342E050E0A40EB51ECF
:10087000610101E010E011C0F501C080D180F6FCFB
:1008800003C06FEF7FEF02C0692D70E042E050E0DF
:10089000A40EB51EC6012DD18C015FE7F52213C051
:1008A000F501C080D180F6FC03C06FEF7FEF02C07E
:1008B000692D70E042E050E0A40EB51EC6010ED1D5
:1008C0008C0150E8F52AF3FE06C018C080E290E0E3
:1008D000B3011AD1EA948E2D90E008171907B0F3EE
:1008E0000DC0F601F7FC8591F7FE81916F0190E054
:1008F000B3010AD1E110EA9401501040011511052D
:1009000081F7E2C0943611F0993661F5F7FE08C020
:10091000F501208131814281538184E090E00AC059
:10092000F501808191819C01442737FD4095542F2A
:1009300082E090E0A80EB91E9FE6F92257FF09C099
:1009400050954095309521953F4F4F4F5F4FE0E8D0
:10095000FE2ACA01B901A1012AE030E001D1D82E56
:10096000D2183FC0953729F41F2D1F7E2AE030E0B2
:100970001DC01F2D197F9F3661F0903720F49835E8
:1009800009F0A5C00FC0903739F0983709F09FC023
:1009900004C028E030E00AC0106114FD146020E1BA
:1009A00030E004C014FD166020E132E017FF08C0FB
:1009B000F501608171818281938144E050E008C03B
:1009C000F50180819181BC0180E090E042E050E03F
:1009D000A40EB51EA101C4D0D82ED2188FE7F82ED0
:1009E000F122F6FE0BC05EEFF522D91438F4F4FEC6
:1009F00007C0F2FC05C08FEEF82202C01D2D01C019
:100A0000192DF4FE0DC0FE01ED0DF11D8081803326
:100A100019F499EEF92208C01F5FF2FE05C003C069
:100A20008F2D867809F01F5F0F2DF3FC13C0F0FEA9
:100A30000EC01E1510F09D2C0AC09D2C9E0C911A04
:100A40001E2D05C080E290E0B3015ED01F5F1E1531
:100A5000C8F304C01E1510F4E11A01C0EE2404FF0F
:100A60000EC080E390E0B3014FD002FF1BC001FD38
:100A700003C088E790E00EC088E590E00BC0802FAF
:100A8000867881F001FF02C08BE201C080E2F7FCB2
:100A90008DE290E0B30138D005C080E390E0B3016F
:100AA00033D09A94D914C8F3DA94F101ED0DF11D05
:100AB000808190E0B30128D0DD20B1F705C080E24D
:100AC00090E0B30121D0EA94EE20C9F750CEF301B3
:100AD00066817781CB012B96E2E1BCC0FC010590D9
:100AE000615070400110D8F7809590958E0F9F1F30
:100AF0000895FC016150704001900110D8F7809575
:100B000090958E0F9F1F08950F931F93CF93DF93A0
:100B10008C01EB018B8181FF1BC082FF0DC02E81F8
:100B20003F818C819D812817390764F4E881F98120
:100B30000193F983E88306C0E885F985802F09953C
:100B4000892B31F48E819F8101969F838E8302C011
:100B50000FEF1FEFC801DF91CF911F910F91089503
:100B6000FA01AA27283051F1203181F1E8946F93DE
:100B70006E7F6E5F7F4F8F4F9F4FAF4FB1E03ED084
:100B8000B4E03CD0670F781F891F9A1FA11D680F22
:100B9000791F8A1F911DA11D6A0F711D811D911D55
:100BA000A11D20D009F468943F912AE0269F1124CA
:100BB0003019305D3193DEF6CF010895462F47702E
:100BC000405D4193B3E00FD0C9F7F6CF462F4F7089
:100BD000405D4A3318F0495D31FD4052419302D0E7
:100BE000A9F7EACFB4E0A69597958795779567958D
:100BF000BA95C9F700976105710508959B01AC018D
:100C00000A2E06945795479537952795BA95C9F7B3
:100C1000620F731F841F951FA01D08952F923F928E
:100C20004F925F926F927F928F929F92AF92BF92FC
:100C3000CF92DF92EF92FF920F931F93CF93DF93A8
:100C4000CDB7DEB7CA1BDB0B0FB6F894DEBF0FBE05
:100C5000CDBF09942A88398848885F846E847D8452
:100C60008C849B84AA84B984C884DF80EE80FD8054
:100C70000C811B81AA81B981CE0FD11D0FB6F894CA
:0E0C8000DEBF0FBECDBFED010895F894FFCF8B
:100C8E0043512020202000565532444D51005245EC
:100C9E004C41592000526561643A2025780D0A00B6
:100CAE000FFF8F39F00F3B39FAB93B44500BCC2F65
:100CBE0061552F2D1078471422AE34F0000000003D
:100CCE0048690D0A00256420446F6E65310D0A00D7
:080CDE004E756D6265720000A5
:00000001FF
