:100000000C9446000C9465000C9465000C946500FB
:100010000C9465000C9465000C9465000C946500CC
:100020000C9465000C9465000C9465000C946500BC
:100030000C9465000C9465000C9465000C946500AC
:100040000C9465000C9467000C9465000C9465009A
:100050000C9465000C9465000C9465000C9465008C
:100060000C9465000C9465000C9465000C9465007C
:100070000C9465000C9465000C9465000C9465006C
:100080000C9465000C9465000C94650011241FBE4F
:10009000CFEFD0E1DEBFCDBF11E0A0E0B1E0EAE8F4
:1000A000FAE000E00BBF02C007900D92AA31B10741
:1000B000D9F712E0AAE1B1E001C01D92A732B10761
:1000C000E1F70E94BB040C9443050C9400001F92BE
:1000D0000F920FB60F920BB60F9211248F93EF93DE
:1000E000FF9380911A01882339F5E0911B01F0E01C
:1000F0008FB1E95DFE4F8083E0911B01F0E0E95D87
:10010000FE4F80818A3A31F480911C018F5F809389
:100110001C0106C080911C01882311F010921C0163
:1001200080911C01823019F481E080931A01809142
:100130001B018F5F80931B01FF91EF918F910F90B7
:100140000BBE0F900FBE0F901F901895FC0107C0BB
:1001500090919B0095FFFCCF919190939C009E2FD6
:10016000981B9617A8F30895CF93DF93CBE9D0E0BF
:100170001882AAE9B0E01C92EDE9F0E010828881D3
:10018000826088838C9188618C9380818660808373
:1001900087E68093990010929800DF91CF9108959F
:1001A0009C0180911D0190911E01A0911F01B091B1
:1001B0002001409121015091220160912301709111
:1001C000240184179507A607B70791F440912501EC
:1001D000442371F0AC01BD014C585F4F6F4F7F4F0E
:1001E00040932101509322016093230170932401D5
:1001F000BC01CD0144E750E00E94E50380911D0160
:1002000090911E01A0911F01B0912001AC01BD0190
:100210004C585F4F6F4F7F4F40931D0150931E010D
:1002200060931F017093200188519F4FAF4FBF4FC4
:10023000813020E0920722E0A20720E0B20740F0E0
:1002400010921D0110921E0110921F0110922001A8
:1002500081E08093250108959C01609121017091B6
:100260002201809123019091240144E750E00E94F3
:10027000E5028091210190912201A0912301B0918A
:100280002401AC01BD014C585F4F6F4F7F4F40932D
:10029000210150932201609323017093240188511E
:1002A0009F4FAF4FBF4F813020E0920722E0A2075F
:1002B00020E0B20740F0109221011092220110922A
:1002C000230110922401089598E028E034E8462F95
:1002D000417076956795582F5170541711F0622729
:1002E00073278695915099F7CB010895EF92FF926D
:1002F0000F931F93CF93DF93182F062FE82EE7015C
:100300007E01F92EE7012FEF3FEF05C08991B9017A
:100310000E9464019C01AE01411B4017B8F3C90162
:1003200080959095DF91CF911F910F91FF90EF9065
:1003300008950F931F93CF93DF93CDB7DEB72A971E
:100340000FB6F894DEBF0FBECDBF8C018EE7D8018B
:100350008C93DE011196E4E0F1E086E001900D92CD
:100360008150E1F7CE01019698012F5F3F4FF901CF
:10037000DC0140E05D91550F51934F5F4630D1F75E
:1003800040E6F8014783FE013196ABE0B1E046E07C
:100390000D9001924150E1F7F8013896DC015D9132
:1003A000550F51934F5F4630D1F748E6D8011E965E
:1003B0004C93FE013196A2E1B1E046E00D9001922E
:1003C0004150E1F7F8013F96DC015D91CD01550FF9
:1003D00051934F5F4630C1F781E6F801858B83E08A
:1003E000868B80EF878BD8015896FB0189E50190B9
:1003F0000D928150E1F7C90160E70E947601F80192
:10040000EF58FF4F91838083F801ED58FF4F8EE73F
:1004100080832A960FB6F894DEBF0FBECDBFDF9162
:10042000CF911F910F9108951092710080E28093F7
:1004300070000895FF920F931F93DC01CB01F90127
:1004400020911901803030E0930731E0A30730E0BC
:10045000B30730F080509040A140B040286001C008
:10046000277F2093190170911901F92E69EC14EA84
:1004700034E8072F0160615009F4A1C010937400A3
:100480002091740027FFFCCF20917100287F2093DA
:100490002601203129F0283389F3283009F08FC054
:1004A00070937300309374002091740027FFFCCF89
:1004B00020917100287F209326012032E1F2283319
:1004C000E9F2283109F075C0F0927300309374009E
:1004D0002091740027FFFCCF20917100287F20938A
:1004E0002601203359F2283349F2283209F061C03D
:1004F00080937300309374002091740027FFFCCF29
:1005000020917100287F20932601203361F1283348
:1005100009F4B4CF283209F04CC010937400209134
:10052000740027FFFCCF20917100287F20932601C3
:10053000203129F0283309F4A1CF2830D1F50093D8
:100540007300309374002091740027FFFCCF20913A
:100550007100287F20932601203421F1283419F0DE
:10056000283339F58BCF80E090E025C0413051052C
:1005700009F434E8309374002091740027FFFCCF15
:1005800020917100287F20932601203521F0283505
:1005900081F440E050E02091730021930196415096
:1005A000504003C080E090E034EC14161506F4F2DD
:1005B00002C08FEF9FEF24E92093740002C08FEFF9
:1005C0009FEF1F910F91FF900895CF92DF92EF92CE
:1005D000FF920F931F93CF93DF937A0169016030ED
:1005E00020E0720721E0820720E0920720F58A01CF
:1005F000222717FD2095322F060F171F281F391F9E
:10060000013040E0140741E0240740E0340798F04F
:10061000CC27DD27C61BD70BAE0196010E941A021C
:10062000A7014C1B5D0B96012C0F3D1F60E070E095
:1006300081E090E002C0A70196010E941A02DF91BA
:10064000CF911F910F91FF90EF90DF90CF90089581
:10065000CF92DF92EF92FF926B017C01FA018091C1
:10066000190140E0C41640E0D40641E0E40640E051
:10067000F40650F040E050E06FEF7FEFC40ED51E5F
:10068000E61EF71E886001C0877F80931901CF01A5
:10069000AA2797FDA095BA2F8C0D9D1DAE1DBF1DDD
:1006A000B701A6014F6784179507A607B70718F487
:1006B000EC0DFD1D03C0F601EF6731967091190135
:1006C0006D2D49EC54EA94E8415009F477C05093F9
:1006D00074008091740087FFFCCF80917100887F47
:1006E00080932601803129F0883389F3883009F01E
:1006F00065C070937300909374008091740087FFBD
:10070000FCCF80917100887F809326018032E1F2D6
:100710008833E9F2883109F04BC0609373009093FD
:1007200074008091740087FFFCCF80917100887FF6
:10073000809326018033C9F0883349F28832C1F5AD
:10074000C0927300909374008091740087FFFCCF77
:1007500080917100887F80932601803331F0883347
:1007600009F4B5CF883221F503C080E090E022C0C3
:10077000AF014C195D09F90180E090E064E811C017
:10078000219120937300609374002091740027FFDF
:10079000FCCF20917100287F20932601283241F45C
:1007A00001969A01281B390B121613064CF302C04E
:1007B0008FEF9FEF24E92093740002C08FEF9FEF2B
:1007C000FF90EF90DF90CF900895AF92BF92CF92BD
:1007D000DF92EF92FF920F931F93CF93DF936B0102
:1007E0007C01EA01590100E010E0C701B601AE0149
:1007F00095010E9428032FEF8F3F920799F0AC01DB
:10080000662757FD6095762FC40ED51EE61EF71E8F
:10081000C81BD90BA80EB91E080F191F1C161D06E0
:1008200024F302C00FEF1FEFC801DF91CF911F919A
:100830000F91FF90EF90DF90CF90BF90AF90089511
:1008400080E090E00E9443051498159A1D9A08953F
:100850000C99FECF882311F01D9A01C01D980C9BA6
:10086000FECF08956F927F928F929F92AF92BF9228
:10087000CF92DF92EF92FF920F931F93CF93DF936C
:100880000F92CDB7DEB7E82EA62E81E099830E94A5
:1008900028040E2D9981192FCC24DD246A2C77246D
:1008A00008946108710820C0F80191908F0188E0D8
:1008B000B82EED2CFF24882483948920882D0E9453
:1008C0002804DD2069F0E614F70451F0882039F09F
:1008D000C394F5E0CF1621F480E00E942804CC24D4
:1008E0009694BA9441F7D394DA14F1F61D9A0F90C6
:1008F000DF91CF911F910F91FF90EF90DF90CF90FC
:10090000BF90AF909F908F907F906F90089587B326
:10091000807F87BBBB9A80EC8DB9089517BA86E0BB
:1009200087BB87B3816387BB88B3816388BB83E55B
:100930008DB9089598B3916398BB98B321E030E0E6
:1009400002C0220F331F8A95E2F72095292328BB86
:100950000895FC0180E090E005C021912FB9779BBC
:10096000FECF019686179707C1F708958FB9779B39
:10097000FECF8FB10895CF93DF93CDB7DEB7C050D0
:10098000D1400FB6F894DEBF0FBECDBFD29ADA9831
:1009900088E10FB6F89481BD11BC0FBE0E94870498
:1009A0000E94B40080E091E063E00E94A600789489
:1009B00010E004E080911A018823A1F160911B01ED
:1009C00087E291E00E94A60060911B01645087E2DB
:1009D00091E00E94760180911B01809127018A3568
:1009E000C1F08535C1F0833329F482E90E94B60451
:1009F00010E012C0882321F48BB380278BBB02C088
:100A0000853D51F4CE01019669E271E00E949901A1
:100A100003C01AEA01C01BEB10921C0110921B01CB
:100A200010921A011B3B31F5CE0101960E942C0158
:100A30008091210190912201A0912301B091240184
:100A400040911D0150911E0160911F017091200184
:100A500084179507A607B70781F484579040A040F4
:100A6000B0408093210190932201A0932301B09381
:100A7000240103C01A3A09F09DCFCE01019664E724
:0A0A80000E94320497CFF894FFCFD4
:100A8A0048690D0043512020202000565532444D1C
:0A0A9A00510052454C41592000A6BE
:00000001FF
